:1000000085C100000C948D2A0C94B82A0C94E32A24
:100010000C940E2B0C94392B0C94642B0C948F2B7A
:100020000C94BA2BA4C10000A2C10000A0C1000022
:100030009EC100009CC100009AC1000098C1000050
:1000400096C1000094C1000092C1000090C1000060
:100050008EC100008CC100008AC100000C94E52B09
:1000600086C100000C94E12F0C94173080C1000071
:100070007EC100007CC100007AC1000078C1000090
:1000800076C1000074C1000072C1000070C10000A0
:100090000C946D300C94A3306AC1000068C100005C
:1000A00066C1000064C1000062C1000060C10000C0
:1000B0005EC100005CC100005AC1000058C10000D0
:1000C00056C1000054C100000C94D11A0C94F930B0
:1000D0000C942F314CC100000C9485310C94BB3131
:1000E00046C10000001D3A2774694E53E8F5D2CF8F
:1000F0009C81A6BBCDD0F7EAB9A4839E25381F0208
:10010000514C6B76879ABDA0F3EEC9D46F725548F7
:100110001B06213C4A57706D3E230419A2BF9885E7
:10012000D6CBECF1130E2934677A5D40FBE6C1DCD7
:100130008F92B5A8DEC3E4F9AAB7908D362B0C11C7
:10014000425F78659489AEB3E0FDDAC77C61465BB7
:100150000815322F5944637E2D30170AB1AC8B96A7
:10016000C5D8FFE2263B1C01524F6875CED3F4E997
:10017000BAA7809DEBF6D1CC9F82A5B8031E392487
:10018000776A4D50A1BC9B86D5C8EFF24954736E77
:100190003D20071A6C71564B1805223F8499BEA367
:1001A000F0EDCAD735280F12415C7B66DDC0E7FA57
:1001B000A9B4938EF8E5C2DF8C91B6AB100D2A3747
:1001C00064795E43B2AF8895C6DBFCE15A47607D37
:1001D0002E3314097F6245580B16312C978AADB027
:1001E000E3FED9C400000A0B02090C0D0E08070338
:1001F00004010000000000000000000000000000FA
:1002000000000000000000000000000000000000EE
:1002100012111000000000000000000000000000AB
:100220000000000000000000000001021020200873
:100230000810204010204080020102010804020141
:1002400001020408102040808040201008040201B0
:100250008004020180402010080402010804020109
:100260000102040810204080010204081020408090
:1002700005050505070508080808020202020A0A22
:100280000808040404040101010101010101030340
:10029000030303030303040707070C0C0C0C0C0CEB
:1002A0000C0C0202020206060606060606060B0BE8
:1002B0000B0B0B0B0B0B000020002300260029006A
:1002C0002C002F003200000100000301060109018B
:1002D00000002200250028002B002E0031003400F1
:1002E00002010000050108010B01000021002400AB
:1002F00027002A002D003000330001010000040116
:1003000007010A014030CC305831E43111241FBEBE
:10031000CFEFD1E2DEBFCDBF00E00CBF14E0A0E024
:10032000B2E0E4EDF7E600E00BBF02C007900D92EB
:10033000A836B107D9F729E0A8E6B4E001C01D92BC
:10034000A73AB207E1F711E0C6E8D1E000E006C045
:1003500021970109802FFE010E947432C238D10713
:1003600080E00807A9F70E94FB260C94E83348CEEA
:10037000611102C00C94262E6130E1F362E0FACFE5
:10038000662319F061E00C94622E60E0FCCF0E94BD
:100390008F2E21E0019709F020E0822F0895089523
:1003A000CF92DF92EF92FF92CF93882351F16A01AF
:1003B0007B01CFEFC80F20E030E0A901CB01B601EF
:1003C0000E94092887FF11C0C701B60190580E94FA
:1003D0007A289B01AC016C2F70E090E080E0CF9117
:1003E000FF90EF90DF90CF90B2C0C701B6010E949E
:1003F00075288C2FCF91FF90EF90DF90CF900C94C9
:10040000EC2CCF91FF90EF90DF90CF9008950F9359
:100410001F938B019C0183E03695279517950795CF
:100420008A95D1F708591B4F462F477021E030E0DD
:10043000F90102C0EE0FFF1F4A95E2F7AF01F80184
:1004400020812423CB010196211102C090E080E09D
:100450001F910F9108950F931F938B019C0183E0CF
:1004600036952795179507958A95D1F7677081E09E
:1004700090E001C0880F6A95EAF7F801E859FB4F50
:100480002081452B31F48095822380831F910F9129
:100490000895822BFACF2F923F924F925F926F92E4
:1004A0007F928F929F92AF92BF92CF92DF92EF9204
:1004B000FF920F931F93CF93DF93D62EC72E782EE4
:1004C000692E49015A01280161E08D2D0E94262ED6
:1004D000CD2DDC2D8E010F5F1F4FA8016D2D7C2DC2
:1004E000872D962DB8DF20E030E0A901C201B701C9
:1004F0000E94AB29181664F4C201B7010E947A2841
:100500002B01C501B4010E947A28A201CE0123D09B
:10051000C801DF91CF911F910F91FF90EF90DF9075
:10052000CF90BF90AF909F908F907F906F905F9093
:100530004F903F902F900895882341F08150682F6D
:1005400070E090E080E050E040E085CF0895862F95
:10055000B9010C94EC2C9C01FC01EC51FE4FE49190
:10056000E150E231E0F4F0E08827E654FD4F8F4F90
:100570000C947432CC02D302D602ED020203CF02F5
:100580001703230327033E03530368037F039403E6
:10059000CF02A903C003D50384B5806884BD60E0A1
:1005A000822F0C94622E84B58062F8CF80918000F7
:1005B0008C7F82608093800080918100807E80614A
:1005C000682B609381005093870040938600809150
:1005D0008000806880938000E2CF809180008C7FD3
:1005E00082608093800080918100807E8061682B92
:1005F0006093810050938700409386008091800033
:100600008062E8CF809180008C7F82608093800040
:1006100080918100807E8061682B6093810050937F
:10062000870040938600809180008860D3CF8091BE
:10063000B00080688093B0008091B100887F682B03
:100640006093B100ACCF8091B0008062F3CF809115
:1006500090008C7F82608093900080919100807EDA
:100660008061682B609391005093970040939600AF
:100670008091900080688093900091CF809190004D
:100680008C7F82608093900080919100807E806159
:10069000682B60939100509397004093960080914F
:1006A00090008062E8CF809190008C7F8260809380
:1006B000900080919100807E8061682B6093910012
:1006C0005093970040939600809190008860D3CF1C
:1006D0008091A0008C7F82608093A0008091A10017
:1006E000807E8061682B6093A1005093A7004093A7
:1006F000A6008091A00080688093A00050CF8091D8
:10070000A0008C7F82608093A0008091A100807EF9
:100710008061682B6093A1005093A7004093A600CE
:100720008091A0008062E8CF8091A0008C7F8260E1
:100730008093A0008091A100807E8061682B6093EF
:10074000A1005093A7004093A6008091A00088606C
:10075000D3CF809120018C7F826080932001809193
:100760002101807E8061682B6093210150932701D5
:1007700040932601809120018068809320010FCF53
:10078000809120018C7F82608093200180912101E3
:10079000807E8061682B60932101509327014093F4
:1007A0002601809120018062E8CF809120018C7F1A
:1007B00082608093200180912101807E8061682B7E
:1007C00060932101509327014093260180912001DD
:1007D0008860D3CF80917E098150823060F483E0BD
:1007E00080937E098091B808882339F0813049F0E0
:1007F0008091B90803C080E0F3CF81E08093B7080F
:1008000002C01092B7088091B70824E0829FC0010F
:1008100011248151984FFC01E553FF4F40815181D4
:10082000628173814093AF085093B0086093B10820
:100830007093B2088D529F4FFC0180819181A281FB
:10084000B3818093B3089093B408A093B508B09394
:10085000B6088FEF8093B70882E099DD8093EE07AA
:1008600084E080937E09089580917D0981508230D3
:1008700060F483E080937D098091D308882339F068
:10088000813049F08091D40803C080E0F3CF81E04B
:100890008093D20802C01092D2088091D20824E03E
:1008A000829FC00111248151984FFC01EA51FF4FF2
:1008B00040815181628173814093CA085093CB0873
:1008C0006093CC087093CD0882519F4FFC018081CA
:1008D0009181A281B3818093CE089093CF08A09399
:1008E000D008B093D1088FEF8093D20883E04FDD1A
:1008F0008093ED0784E080937D090895CF92DF9285
:10090000EF92FF926B017C019F7720E030E040E89E
:1009100059E50E94092887FF2BC020E030E040E025
:100920005FE3C701B6010E94AB2987FD0EC020E03E
:1009300030E040E05FE3C701B6010E949227FF90DC
:10094000EF90DF90CF900C94E32820E030E040E07F
:100950005FEBC701B6010E94AB29181684F420E0B2
:1009600030E0A901C701B6010E94AF296B017C01EB
:10097000C701B601FF90EF90DF90CF90089520E07F
:1009800030E040E05FE3C701B6010E949127FF908D
:10099000EF90DF90CF900C94F627E0917608F091DD
:1009A00077088091DF079091E007A091E107B0916F
:1009B000E20780839183A283B38308952F923F92AD
:1009C0004F925F926F927F928F929F92AF92BF925F
:1009D000CF92DF92EF92FF920F931F93CF93DF930B
:1009E000CDB7DEB72E970FB6F894DEBF0FBECDBFE2
:1009F0002090E9083090EA082091EC083091ED0849
:100A00003A83298331E02316310409F00FC1809124
:100A10009B0890919C08A0919D08B0919E088090A1
:100A2000A3089090A408A090A508B090A608C09034
:100A30009F08D090A008E090A108F090A2088F3FF6
:100A40004FEF9407A407B40709F0CDC0C701B60162
:100A50006F5F7F4F8F4F9F4F0E94A628A501940183
:100A60000E94AF2920E030E040E85FE40E94AF2917
:100A70006093FF0770930008809301089093020829
:100A800080918409815010E0823008F413E01093C3
:100A90008409F1E02F16310409F062C02091DE02D2
:100AA0003091DF024091E0025091E1026091E20258
:100AB0007091E3028091E4029091E5020E94AF29D7
:100AC0006B017C012091EE072093EB073091ED073D
:100AD0003093EC078FEF9FEFDC01809374099093C4
:100AE0007509A0937609B093770980917F098111E8
:100AF000B3C081E080937F0981E090E0A0E0B0E0A6
:100B00008093780990937909A0937A09B0937B092F
:100B10002091E7073091E8074091E9075091EA07F3
:100B20006091E6027091E7028091E8029091E902FB
:100B30000E94AF299B01AC012093DB073093DC07B7
:100B40004093DD075093DE07C701B6010E9491274D
:100B50006093DF077093E0078093E1079093E207CB
:100B6000E981FA81C080D180E280F380F091600950
:100B7000FD87209161092E870091620930916309F8
:100B80003983409068097090690960906A095090B3
:100B90006B09A70196016F2F7E85802F99810E9496
:100BA000AB29242D372D462D552D87FDEFC0C701CC
:100BB000B6010E94092818160CF003C4242D372D05
:100BC000462D552D6D857E85802F99810E9409289F
:100BD00087FDE4C080906C0990906D09A0906E092B
:100BE000B0906F09F2C0BC01CD016F5F7F4F8F4F96
:100BF0009F4F0E94A628A50194010E94AF292B01B6
:100C00003C01C701B6010E94A628A50194010E94DB
:100C1000AF2920E030E040E85FE40E94AF299B016B
:100C2000AC01C301B2010E94922722CF21143104EA
:100C300009F026CFE0912F08F09130080190F08163
:100C4000E02D80819181A281B381E981FA81808345
:100C50009183A283B38314CF6091E7077091E80773
:100C60008091E9079091EA0780907809909079093E
:100C7000A0907A09B0907B0942E084169104A10407
:100C8000B104C1F1A3E08A169104A104B10409F4EE
:100C900058C08A9489288A288B2809F065C0332394
:100CA00099F020E030E040E85FE30E9491276093F4
:100CB000E7077093E8078093E9079093EA0783E0DA
:100CC00090E0A0E0B0E01CCF222309F421CF20E087
:100CD00030E040E85FE30E9492276093E70770935B
:100CE000E8078093E9079093EA0782E090E0A0E0AC
:100CF000B0E006CF21110FC020E030E040E85FE314
:100D00000E9491276093E7077093E8078093E907B3
:100D10009093EA07F1CE332309F4FACE20E030E0D5
:100D200040E85FE30E9492276093E7077093E8072B
:100D30008093E9079093EA0784E090E0A0E0B0E0B8
:100D4000DFCE311107C020E030E040E85FE30E94D1
:100D50009227D8CF222309F4DBCE20E030E040E810
:100D60005FE30E949127E0CF311107C020E030E01F
:100D700040E85FE30E949127B0CF2111C9CE20E067
:100D800030E040E85FE30E94922791CF6D857E8539
:100D9000802F99810E94092887FF0BC0242D372DB1
:100DA000462D552DC701B6010E94AB2918160CF42B
:100DB00011CF8090640990906509A0906609B09069
:100DC00067094D847E84602E5980242D372D462D51
:100DD000552DC701B6010E9491276B017C01A50129
:100DE00094016091DF077091E0078091E107909195
:100DF000E2070E949127A70196010E940D286B012E
:100E00007C0141E024163104D1F42091DF073091B8
:100E1000E0074091E1075091E2076091F60270917E
:100E2000F7028091F8029091F9020E94AF29609335
:100E3000E3077093E4078093E5079093E60720911A
:100E4000EA023091EB024091EC025091ED02C701B1
:100E5000B6010E94AF292091E3073091E407409149
:100E6000E5075091E6070E9492276B017C012091D3
:100E7000FE083091FF0840910009509101096091EE
:100E8000F2027091F3028091F4029091F5020E94B7
:100E9000AF29A70196010E949227B62E072F8D87B2
:100EA0009983C090FA02D090FB02E090FC02F0908F
:100EB000FD02262F372FAC01C701B6010E94092879
:100EC00087FD16C0C090FE02D090FF02E0900003A4
:100ED000F09001032B2D302F4D855981C701B601AC
:100EE0000E94AB29181624F0CB2CD02EED84F9806B
:100EF00081E02816310489F491E0998320E030E004
:100F0000A901C701B6010E94AB2918160CF019827D
:100F100081E0A981A827A0937C0980917C0988237E
:100F200009F453C2813009F476C2E894F7F860916D
:100F30000C0970910D0980910E0990910F0967DAE3
:100F40009A83898390930B0980930A092091020365
:100F5000309103034091040350910503C701B6018A
:100F60000E94AF296B017C0120E030E04FE753E4A1
:100F70000E94092887FF7DC220E030E0A901C70157
:100F8000B6010E94AB2918160CF07AC2B701A6016F
:100F900089819A8105DA8091E9089091EA080197A0
:100FA00009F050C08091DB079091DC07A091DD072C
:100FB000B091DE078093850990938609A0938709F5
:100FC000B093880969857A858B859C8597DC6B0150
:100FD0007C0120E030E040E853E40E9409286FEFF4
:100FE00087FF0EC020E030E0A901C701B6010E94D2
:100FF000AB2960E087FD04C0C701B6010E947A28D2
:101000008EE1BED96D817E818F81988577DC6B0101
:101010007C0120E030E040E853E40E9409286FEFB3
:1010200087FF0EC020E030E0A901C701B6010E9491
:10103000AB2960E087FD04C0C701B6010E947A2891
:101040008FE19ED98091E9089091EA08019709F013
:1010500099C28091600990916109A0916209B09153
:10106000630989839A83AB83BC8340909109509034
:1010700092096090930970909409E091EC08F091C6
:10108000ED08C080D180E280F380A3019201BC0111
:10109000CD010E9409288111F7C1C0926009D09248
:1010A0006109E0926209F0926309E4E6F9E0809157
:1010B000DF079091E007A091E107B091E2078083FC
:1010C0009183A283B38382E090E00E945B1AE09157
:1010D000EC08F091ED08408151816281738190E0CC
:1010E00080E00E94571A8091E9089091EA080197E0
:1010F00009F048C26091AB087091AC088091AD08CE
:101100009091AE080E94A62820E030E040E85FE41D
:101110000E94AF296B017C016091A7087091A8081B
:101120008091A9089091AA080E94A6289B01AC0171
:10113000C701B6010E94922727E137EB41ED58E342
:101140000E94AF29AB01BC0181E090E00E94571AD8
:101150008091E9089091EA08019709F013C2809004
:10116000E5089090E608A090E708B090E80820E035
:1011700030E040E85FEBC501B4010E9409288823F4
:1011800009F448C06091AB087091AC088091AD083B
:101190009091AE080E94A62820E030E040E85FE48D
:1011A0000E94AF296B017C016091A7087091A8088B
:1011B0008091A9089091AA080E94A6289B01AC01E1
:1011C000C701B6010E94922727E137EB41ED58E3B2
:1011D0000E94AF296B017C01AC019B01C501B401E8
:1011E0000E9491274B015C0120E030E040E054E395
:1011F000C701B6010E94AF299B01AC01C501B40132
:101200000E94AB29181634F08AE293E09093F0071D
:101210008093EF078091EB08882331F08AE293E016
:101220009093F0078093EF078090FF07909000085D
:10123000A0900108B0900208E0910308F091040822
:10124000C080D180E280F380E0913308F0913408CF
:10125000A081B181BA83A983E091F707F091F807E3
:1012600000811181E091F507F091F607118210825B
:10127000E0912D08F0912E08118300838EDBE09120
:101280002F08F09130080190F081E02D808291824A
:10129000A282B382F8012081318142815381C7014A
:1012A000B6010E94AF299B01AC01A981BA816D9161
:1012B0007D918D919C910E949227E981FA816083B2
:1012C000718382839383E091F507F091F60781E0C3
:1012D00090E09183808340919B0850919C0860919D
:1012E0009D0870919E084F5F5F4F6F4F7F4F4093F7
:1012F0009B0850939C0860939D0870939E0841152D
:1013000051056105710599F480919F089091A0089D
:10131000A091A108B091A2080196A11DB11D8093D2
:101320009F089093A008A093A108B093A208809171
:10133000FF0790910008A0910108B0910208E09188
:10134000EC08F091ED0880839183A283B3838091B0
:10135000A7089091A808A091A908B091AA080196A1
:10136000A11DB11D8093A7089093A808A093A90878
:10137000B093AA08892B8A2B8B2B99F48091AB0808
:101380009091AC08A091AD08B091AE080196A11D56
:10139000B11D8093AB089093AC08A093AD08B093B7
:1013A000AE088091B708882309F494C0813009F40D
:1013B00095C081E09091B908992309F48CC080E030
:1013C0008AC0C12CD12C76011CCD80910E03909146
:1013D0000F03A0911003B091110389879A87AB87FF
:1013E000BC878091120390911303A0911403B091D4
:1013F00015038D839E83AF83B8872A94232809F031
:1014000094CD112331F0133009F411E010938409C5
:101410008CCD12E0FBCF8091060390910703A09141
:101420000803B091090389879A87AB87BC878091AD
:101430000A0390910B03A0910C03B0910D038D83CF
:101440009E83AF83B8872A94232809F06ECD8091BC
:101450008309882359F0833029F481E090E0809358
:10146000830963CD082E000C990BF9CF82E090E040
:10147000F6CFC12CD12C8FE7E82E83E4F82E86CD51
:10148000C12CD12C760182CD809068099090690999
:10149000A0906A09B0906B09A5019401C301B20143
:1014A0000E94092881110BC0C0926809D092690975
:1014B000E0926A09F0926B09ECE6F9E0F8CDA5013B
:1014C000940169817A818B819C810E94092887FF20
:1014D000EBCFE3CD81E08093B80802C01092B8084A
:1014E0002091B808F4E02F9FC00111248151984F3A
:1014F000FC01E553FF4F4083518362837383C090A7
:101500009F08D090A008E090A108F090A2088D520A
:101510009F4FDC01CD92DD92ED92FC9213972093C8
:10152000B9088FEF8093B8088091D208882349F0DA
:10153000813059F081E09091D408992319F080E02E
:1015400001C081E08093D30802C01092D30820919B
:10155000D308B4E02B9FC00111248151984FFC01A6
:10156000EA51FF4F408351836283738382519F4FBF
:10157000FC01C082D182E282F3822093D4088FEFF3
:101580008093D3082E960FB6F894DEBF0FBECDBF62
:10159000DF91CF911F910F91FF90EF90DF90CF904F
:1015A000BF90AF909F908F907F906F905F904F9083
:1015B0003F902F9008954F925F926F927F92AF92DB
:1015C000BF92CF92DF92EF92FF920F931F93CF9330
:1015D000DF9384E090E068D2EFEEF7E08FE091E0F7
:1015E000DF01EC011D922197E9F7C9EED8E0D7831E
:1015F000C6838CEE98E09093300880932F0803EA1E
:1016000018E0158B048B26E738E037AF26AF40E7AC
:1016100058E0509334084093330823E938E030937E
:1016200032082093310825E938E0309336082093BA
:10163000350822E738E0309338082093370824E74C
:1016400038E030933A0820933908F0935A08E09331
:101650005908F583E48321E030E03983288321E8C9
:1016600038E06DE778E0D9016D937C936EEFC62E7C
:1016700068E0D62EEA01D982C882318720872EE31E
:1016800033E0338722872EEE38E0DC012D933C9344
:1016900040E050E060E87FEB4093E5085093E608B7
:1016A0006093E7087093E80847E157EB61ED78E352
:1016B000E801488359836A837B8343E858E085EBDC
:1016C00098E6ABEAB8EEEA0188839983AA83BB83E4
:1016D00087E591E0A8E6B1EB8093870890938808AE
:1016E000A0938908B0938A088FEE9FE7A2EEB1EA33
:1016F00080938B0890938C08A0938D08B0938E08EC
:101700008EEA9EE7A6E4B6EF80938F089093900848
:10171000A0939108B0939208ABE9B4E0B383A2839D
:10172000E5E8F4E01196FC93EE9383E493E0918373
:101730008083938382839583848397838683918731
:1017400080878EE799E093878287958784878DE7E6
:1017500099E097878687918B808B83E899E0938BBC
:10176000828B84E899E0958B848B89E998E01596C3
:101770009C938E93149713965C934E93129717969F
:101780003C932E9316977BEDA72E77E0B72E24E19E
:10179000F50111922A95E9F724E0D6011D922A95C8
:1017A000E9F7C2E0D9E023E8FE0111922A95E9F7B2
:1017B0001092850910928609109287091092880963
:1017C000EBE7F4E02AE0DF011D922A95E9F7E1E773
:1017D000F4E0DC01ED93FC9381E190E09183808360
:1017E00088EB92E09383828386E992E095838483F9
:1017F00082E292E09783868386E092E091878087F9
:1018000062E082E00E94262E41E050E06AEE73E042
:1018100080E00E94132A62E083E00E94262E41E0CD
:1018200050E064E374E081E00E94132ACC24CA945F
:10183000C0927C091882DD24D394D092800922E3DF
:101840002E8F93E39F8F84E388A385E389A386E3A8
:101850008AA387E38BA388E38CA389E38DA381E329
:101860008EA330E33FA388A789A78AA72BA78CA7BD
:101870009DA780E299E09F838E8385E090E0A0E0C1
:10188000B0E08A879B87AC87BD871D82412C512C95
:101890003201439449825A826B827C82E12CF12C82
:1018A0008701A801970165E070E080E090E00E9468
:1018B0004B02998788876A857B858C859D850E94E8
:1018C0000702998788870E94CF01DD821092500914
:1018D000D0928109C5E5D9E0188240925109509211
:1018E0005209609253097092540961E08EE10E949E
:1018F000B801D88210925809D0928209CDE5D9E07A
:1019000018824092590950925A0960925B0970926C
:101910005C0961E08FE10E94B801D882C092B708EB
:10192000C092B8081092B908C092D208C092D308E9
:101930001092D4088091910990919209A0919309F5
:10194000B09194098093600990936109A093620912
:10195000B09363098093680990936909A0936A0919
:10196000B0936B09EAEDF2E084899589A689B7897D
:101970008093FE089093FF08A0930009B09301099B
:101980008FEF9FEFDC018093740990937509A0930A
:101990007609B093770910927F0910927809109216
:1019A000790910927A0910927B0980819181A28134
:1019B000B381E5018C879D87AE87BF87DF91CF918B
:1019C0001F910F91FF90EF90DF90CF90BF90AF905D
:1019D0007F906F905F904F900895809102098111E0
:1019E00036C081E080930209809103099091040937
:1019F000A0910509B09106090197A105B10539F536
:101A000080910709882319F160910C0970910D09E3
:101A100080910E0990910F090E94070290930B0983
:101A200080930A0940E050E0BA010E94D001609121
:101A30000C0970910D0980910E0990910F090E9477
:101A4000070290930B0980930A090E949C028091DF
:101A50005009811103C081E0809350098091580999
:101A6000811103C081E080935809089560E070E01F
:101A700080E89FE7089560E070E080E89FE70895C0
:101A800060E070E080E89FEF089560E070E080E83B
:101A90009FEF089560E070E080EC9FEF089560E0B4
:101AA00070E080EC9FEF0895F5DF609395097093E7
:101AB00096098093970990939809F1DF60938909BB
:101AC00070938A0980938B0990938C09CFDF609380
:101AD0009109709392098093930990939409CBDFB5
:101AE00060938D0970938E0980938F09909390096C
:101AF000C7DF6093990970939A0980939B0990932B
:101B00009C09C3DF60939D0970939E0980939F0990
:101B10009093A0090895EF92FF920F931F93CF9394
:101B2000DF93EA01F901DC011496ED90FC90159722
:101B300012964D915C9113974E0D5F1D288139814E
:101B400018960D911C9119970217130730F00D91FB
:101B50001C911197012B09F441C08A01021B130B40
:101B6000DC0118968D919C918E199F09800F911F11
:101B700086179707DCF1C901860F971F8417950711
:101B800078F47183608333832283158214821782F1
:101B9000168288819981680F791F7983688316C0BE
:101BA0001183008333832283601B710B75836483ED
:101BB00090E080E01616170614F49E2D8F2D968364
:101BC0008783D701A60FB71FB983A88380E0DF9171
:101BD000CF911F910F91FF90EF90089518968D91DE
:101BE0009C91821B930B861797075CF681E0EFCFE1
:101BF000CF92DF92EF92FF92CF93DF936B0184E459
:101C0000869FE001879FD00D1124C955DB4F8AA91B
:101C10009BA9009721F00E9446331BAA1AAA84E4CC
:101C20008C9DF0018D9DF00D1124E955FB4F86A987
:101C300097A9009711F00E94463384E48C9DF0012F
:101C40008D9DF00D1124E955FB4F138A128A168AD7
:101C5000178A108E118E128E138E148E158E168E7C
:101C6000178E10A211A281E090E093A382A315A287
:101C700014A216A217A210A611A613A612A615A6A4
:101C800014A616A617A610AA11AA13AA12AA15AA74
:101C900014AA17AA16AA11AE10AE12AE13AE14AE45
:101CA00015AEDF01DE961D921D921D921C921397B8
:101CB000EE5BFF4F11821082DF91CF91FF90EF908A
:101CC000DF90CF900895CF93DF93FB01DC016D91FE
:101CD0007C91DB011696CD91DC918081918123E08E
:101CE000880F991F2A95E1F7AA81BB81A80FB91F18
:101CF0008D919C91119724853585220F331FEB011F
:101D00006A817B81EB01C20FD31F0990D881C02D5E
:101D100014962D913C9161E070E0232B11F062E06C
:101D200070E0C69F9001C79F300DD69F300D1124E3
:101D3000A085B1852A9FB0012B9F700D3A9F700D31
:101D40001124A481B5812A9FF0012B9FF00D3A9FA9
:101D5000F00D11248E0F9F1FFA01918380837383EE
:101D60006283DF91CF9108952F923F924F925F92BD
:101D70006F927F928F929F92AF92BF92CF92DF929B
:101D8000EF92FF920F931F93CF93DF9300D000D079
:101D9000CDB7DEB7DC011496ED91FC910190F08196
:101DA000E02D808591859A838983A281B381BC834C
:101DB000AB83FB0181909190A190B190C12CD12C6B
:101DC0007601C814D904EA04FB04CCF026960FB6B9
:101DD000F894DEBF0FBECDBFDF91CF911F910F9161
:101DE000FF90EF90DF90CF90BF90AF909F908F903B
:101DF0007F906F905F904F903F902F900895448018
:101E00005580668077804085518562857385CF01D6
:101E100040969E838D83A081B1819D0183E0220F36
:101E2000331F8A95E1F7A981BA8112968D919C9111
:101E3000D901A80FB91F2D903C9011970484F58506
:101E4000E02DEE0FFF1F8B819C81E80FF91F0190A1
:101E5000F081E02D14968D919C91892B41F581E0C4
:101E600090E0E89F9001E99F300DF89F300D11241C
:101E7000249F8001259F100D349F100D1124249D57
:101E8000C001259D900D349D900D1124A8016D81F8
:101E90007E81820D931D0E94CF33ED81FE81E00F84
:101EA000F11F9FEFC91AD90AE90AF90A8ACF82E01D
:101EB00090E0D7CFCF93DF93DB01AA5EBC4F2C918C
:101EC000222369F024E4269FF001279FF00D1124BE
:101ED000E955FB4FEF0119922A95E9F71C9224E48A
:101EE000269FF001279FF00D1124E955FB4F148226
:101EF0001582168217821186108613861286118A21
:101F0000108A17861686DF91CF9172CE2F923F925C
:101F10004F925F926F927F928F929F92AF92BF92F9
:101F2000CF92DF92EF92FF920F931F93CF93DF93A5
:101F300000D000D01F921F92CDB7DEB724E4269FB9
:101F4000F001279FF00D1124E955FB4F0481158105
:101F500026813781012B022B032B09F4B7C02A01FC
:101F60006B017C0110E000E0812C912C54013F01B9
:101F70009F01285F3F4F3C832B83CF0104969E83B4
:101F80008D83AB81BC818D919C91ED81FE814081DF
:101F900051816281738184169506A606B706E4F125
:101FA0000E944633D3011A968D919C91892B09F09A
:101FB0007EC084E48C9DD0018D9DB00D1124A95567
:101FC000BB4FBC83AB8350968D919C910E9446334E
:101FD000EB81FC81868597850E944633C701B60157
:101FE00007DEC701B60128960FB6F894DEBF0FBE14
:101FF000CDBFDF91CF911F910F91FF90EF90DF90B8
:10200000CF90BF90AF909F908F907F906F905F9098
:102010004F903F902F904ECFFC01E00FF11F928127
:102020009983A381AA839F83A887312C212C241410
:10203000350464F089819A810E944633EFEF8E1A4D
:102040009E0AAE0ABE0A0C5F1F4F9BCFAF81B885B8
:10205000ED91FD91B887AF83309759F084819581D8
:102060000E944633EF81F8853297808191810E94EA
:102070004633BFEF2B1A3B0ADACF800F911FFC01CA
:10208000848195810E9446332B813C812F5F3F4F95
:102090003C832B83025F1F4FF501808191812B814F
:1020A0003C81241535054CF30E94463382CF10E065
:1020B00000E01C821B8224E42C9DC0012D9D900D0C
:1020C0001124DC01AF54BB4F5D01E6CF28960FB65B
:1020D000F894DEBF0FBECDBFDF91CF911F910F915E
:1020E000FF90EF90DF90CF90BF90AF909F908F9038
:1020F0007F906F905F904F903F902F90089524E4D1
:10210000269FF001279FF00D1124E955FB4F82898E
:1021100093890497029758F485E090E0938B828B23
:102120008FEF9FEFDC01828F938FA48FB58F08957F
:102130002F923F924F925F926F927F928F929F92D7
:10214000AF92BF92CF92DF92EF92FF920F931F93C5
:10215000CF93DF93CDB7DEB7AA970FB6F894DEBF63
:102160000FBECDBF9AA389A37E8B6D8B1A01098BFD
:102170001A8B2B8B3C8B84E429893A89829F6001DE
:10218000839FD00C1124860109551B4F89899A8998
:10219000AB89BC89F80180839183A283B383AB01AF
:1021A000BC01CD01B3DED601A555BB4F84E0F101E2
:1021B00001900D928A95E1F7F4E02F0E311C64E056
:1021C00070E0D80114968D919C910E949032F80194
:1021D00091878087892B09F0F5C04D895E896989CF
:1021E0007A898B899C8992DE81E0AA960FB6F89451
:1021F000DEBF0FBECDBFDF91CF911F910F91FF903A
:10220000EF90DF90CF90BF90AF909F908F907F9096
:102210006F905F904F903F902F900895A9A5BAA519
:102220008D919C91E98DFA8DE80FF91FF88FEF8B56
:10223000D1018D919C91880F991FA9A1BAA1ED910F
:10224000FC91E80FF91F80819181EF89F88D9183CE
:102250008083D10114962D913D914D915C911797FA
:102260002BA33CA34DA35EA362E070E08D899E8901
:102270000E949032EF89F88D93838283892B09F431
:10228000ACCFF8E02F0E311C412C512C32012BA188
:102290003CA14DA15EA142165306640675069CF052
:1022A0002B8D3C8D4D8D5E8D2F5F3F4F4F4F5F4F80
:1022B0002B8F3C8F4D8F5E8F498D5A8D4C5F5F4FBA
:1022C0005A8F498F90C0610124E0C20ED11CD10108
:1022D000ED90FC90EE0CFF1CEF89F88D82819381CC
:1022E000E80EF91E68E070E081E090E00E94903214
:1022F0008C01D7018D939C93892B09F46ECF84E0D8
:10230000F601D80101900D928A95E1F7B8E02B0E05
:10231000311CF80180819181A281B38118161906C0
:102320001A061B06DCF464E070E00E949032D801CB
:1023300015969C938E931497892B09F44ECFD12C2C
:10234000C12C812C912C5401F80180819181A281B2
:10235000B38188169906AA06BB0634F0FFEF4F1A20
:102360005F0A6F0A7F0A93CFF801E480F580EC0CD6
:10237000FD1C80E1F101DE01119601900D928A951C
:10238000E1F7F0E12F0E311CA701BE016F5F7F4F17
:10239000A9A1BAA114968D919C9195DCF801868132
:1023A0009781D70112962D913C91820F931F9783AD
:1023B0008683BFEF8B1A9B0AAB0ABB0AE4E0CE0E02
:1023C000D11CC2CF1A8E198E1B8E1C8E1D8E1E8E96
:1023D00018A30F8FA8014C5F5F4F58A74FA3C801E8
:1023E00008969AA789A7EFA1F8A580819181A2817B
:1023F000B3812B8D3C8D4D8D5E8D281739074A0793
:102400005B070CF40BCF6EE070E08D899E890E9413
:102410009032AF8DB8A11B969C938E931A97B12CD6
:10242000A12CD12CC12CF12CE12C24E4E989FA89CE
:102430002E9FC0012F9F900D11249C012F543B4FC4
:10244000388F2F8B88248394912C4D895E89C416F4
:10245000D50654F184E4A989BA898A9F80018B9FAB
:10246000100D112409551B4FF80115861486C7015C
:1024700033E0880F991F3A95E1F70E94AA32D801FC
:1024800051969C938E935097892B09F4A6CEC70141
:10249000880F991F0E94AA32F80197878687892B97
:1024A00009F49BCE80E0A1CED1014D905D906D905E
:1024B0007D901D0177FC91CEEF89F88D008111810F
:1024C0000A0D1B1DD80111969C928E924114510445
:1024D0006104710429F1C2010E94AA32F8019583B6
:1024E0008483892B09F479CEF80153824282848156
:1024F000958197838683918780871386128681E0F2
:1025000090E045284628472811F490E080E0E80E46
:10251000F91EFFEFCF1ADF0A2EE0A20EB11C95CFF5
:1025200015961C921E921497DFCF2F923F924F92D6
:102530005F926F927F928F929F92AF92BF92CF9253
:10254000DF92EF92FF920F931F93CF93DF93CDB75C
:10255000DEB76A970FB6F894DEBF0FBECDBF9E8B75
:102560008D8B49015A0184E4829F7001839FF00C96
:102570001124970129553B4F6901FB01808191810D
:10258000F901958B848BD701A354BB4FFB01349683
:1025900084E001900D928A95E1F7D701AF53BB4FCC
:1025A000FB01389684E001900D928A95E1F7D701FE
:1025B000AB53BB4FFB013C9684E001900D928A9592
:1025C000E1F7D701AB52BB4FFB01709684E001905D
:1025D0000D928A95E1F78B010C5E1F4FF90186A5DC
:1025E00097A5A0A9B1A918161906DCF5880F991F9F
:1025F000880F991F0E94AA32F60193AB82AB892BF8
:1026000009F4D3C0312C212C412C512C32019601DC
:10261000225D3F4F388F2F8BC601C2969A8F898FCC
:10262000F496FC8BEB8BB301A2012FEF421A520AF6
:10263000620A720AEF89F88D80819181A281B3814B
:10264000481759076A077B070CF47BC0F60184A979
:1026500095A90E94AA32F60197AB86AB892B09F4A3
:10266000A4C0F80180819181A281B38124E4289DD6
:10267000F001299DF00D1124E955FB4FAC01BD017E
:102680004D7F21E030E0452B462B472B11F030E009
:1026900020E033A322A324E4289DF001299DF00D1E
:1026A0001124E955FB4F0197A109B10921E030E060
:1026B0000297A105B10510F030E020E035A324A376
:1026C000D701A353BB4FF801349684E001900D92DB
:1026D0008A95E1F784E4889DF001899DF00D11242D
:1026E000E955FB4F868D978DA0A1B1A1B7FF58C0CA
:1026F000B095A095909581959F4FAF4FBF4F82AFFA
:1027000093AFA4AFB5AF168E178E10A211A280E0C2
:102710006A960FB6F894DEBF0FBECDBFDF91CF91A2
:102720001F910F91FF90EF90DF90CF90BF90AF90EF
:102730009F908F907F906F905F904F903F902F90E1
:102740000895E98DFA8D808191819C01220D331DC0
:102750003A8B298B80E1F801DE01119601900D92F0
:102760008A95E1F7005F1F4F49895A89BE016F5F63
:102770007F4FED89FE8984819581A5DAEB89FC89FB
:1027800080819181E989FA8922813381820F931FA7
:10279000EB89FC8991838083F4E02F0E311C43CFB9
:1027A00012AE13AE14AE15AEB2CFC501B40120DA2D
:1027B00081E0AECFCF92DF92EF92FF92CF93DF9383
:1027C00010922F0524E4269FF001279FF00D11247D
:1027D000E955FB4F15A614A630E020E0D12CC12C02
:1027E000DF011A96C1E0D0E0C416D506F4F024E467
:1027F000269FF001279FF00D1124E955FB4F13A6EA
:1028000012A611AE10AEDF01DE961D921D921D9232
:102810001C92139782E090E0938B828BDF91CF9193
:10282000FF90EF90DF90CF900895ED91FC9111977C
:10283000E20FF31FE280F3801E141F0454F4E480BF
:10284000F580F782E682F186E08613861286D183D0
:10285000C083EFEFCE1ADE0A225F3F4FC5CF24E4DC
:10286000269FF001279FF00D1124E955FB4F138A95
:10287000128A4CCB24E4269FF001279FF00D1124EF
:10288000E955FB4F8289938981309105C8F08530E5
:10289000910518F0059769F008958FEF9FEFDC011F
:1028A000828F938FA48FB58F85E090E0938B828B7E
:1028B00008958FEF9FEFDC01828F938FA48FB58FE8
:1028C000089524E4249FD001259FB00D1124A9551B
:1028D000BB4F2EE0AC01249FC001259F900D112419
:1028E0001A96ED91FC91E80FF91F81E080932F0576
:1028F00082859385918780874085518526813781A0
:1029000081E090E04217530711F090E080E091835E
:10291000808308952F923F924F925F926F927F92A1
:102920008F929F92AF92BF92CF92DF92EF92FF92DF
:102930000F931F93CF93DF93CDB7DEB7C055D10967
:102940000FB6F894DEBF0FBECDBF9EAF8DAF4BA7C5
:102950005CA76DA77EA76801790184E4809FF001E0
:10296000819FF00D1124E955FB4F22853385239675
:102970003FAF2EAF239782899389029761F486A592
:1029800097A5A0A9B1A9892B8A2B8B2BC9F584E027
:1029900090E0938B828B84E48C9DF0018D9DF00DF3
:1029A0001124E955FB4F828993898230910509F002
:1029B00037C282AD93ADA4ADB5AD22242394312CA2
:1029C000181619061A061B060CF42FC2C05BDF4F3F
:1029D0000FB6F894DEBF0FBECDBFDF91CF911F9130
:1029E0000F91FF90EF90DF90CF90BF90AF909F90AE
:1029F0008F907F906F905F904F903F902F900895B1
:102A0000848995894DAD5EAD8417950721F606A999
:102A100017A918AE1FAA1BAA1CAA1DAA1EAA1F012D
:102A2000CF018E9627969FAF8EAF2797DF01D29664
:102A30002996BFAFAEAF2997F8962B96FFAFEEAFB2
:102A40002B9791012A5D3F4F2D963FAF2EAF2D97CB
:102A5000A1014E5D5F4F2F965FAF4EAF2F970A9744
:102A600061969FAF8EAF61972796EEADFFAD27972A
:102A700080819181A281B3812BA93CA94DA95EA936
:102A8000281739074A075B0744F081E090E0D1013D
:102A9000D9969C938E93D8977ECF2996AEADBFAD35
:102AA0002997ED91FC912FA938ADE20FF31F4281D8
:102AB00053815AAF49AF50815FAF818121968FAF6B
:102AC00021972B96AEADBFAD2B978D919C91892B05
:102AD00021F12D96EEADFFAD2D9780809180A280E3
:102AE000B3801AAB09AB5FA72196FFAD2197F8AB76
:102AF00029AD3AAD369527953695279525963FAF62
:102B00002EAF25971CAE1BAE2596AEADBFAD25975B
:102B1000EBADFCADEA17FB070CF149AD5AAD6FAD5B
:102B200021967FAD2197C8010E94CF3389AD9AAD20
:102B30008C7F080F191F2BA93CA94DA95EA92F5FF7
:102B40003F4F4F4F5F4F2BAB3CAB4DAB5EAB4FA9F5
:102B500058AD4C5F5F4F58AF4FAB86CF2F96AEADA1
:102B6000BFAD2F978D919C91892B71F1EFA5F8A99D
:102B70004080518062807380A3019201C501B4013D
:102B80000E940928181664F0A9A9BAA92D913D91AF
:102B90004D915C91C501B4010E94AB291816BCF19E
:102BA000A3019201C501B4010E94092887FF0CC04E
:102BB000E9A9FAA92081318142815381C501B4017B
:102BC0000E940928882319F16196AEADBFAD6197C7
:102BD0008D919C91892B09F445C0EFA5F8A94080FF
:102BE000518062807380A3019201C501B4010E94EB
:102BF000AB2918161CF5A9A9BAA92D913D914D91A3
:102C00005C91C501B4010E94092818165CF184E4A6
:102C10008C9DF0018D9DF00D1124E955FB4F868DA3
:102C2000978DA0A1B1A1892B8A2B8B2B69F183E011
:102C300090E0938B828B81E090E02CC0A301920105
:102C4000C501B4010E94092881110CC0E9A9FAA9A3
:102C50002081318142815381C501B4010E9409283C
:102C600087FDD5CF2BAD3CAD2F5F3F4F3CAF2BAF9A
:102C700049A95AA94C5F5F4F5AAB49AB8FA598A998
:102C8000049698AB8FA740CF84E090E0938B828B23
:102C900086AD97AD93A782A77ECEEBADFCAD8081CC
:102CA0009181F401EE0FFF1FEE0FFF1FE80FF91FD8
:102CB000A081B1818C9181110AC0FFEF8F1A9F0A08
:102CC000AF0ABF0A8DA29EA2AFA2B8A68FC1833061
:102CD000A1F30280F381E02D2FA938ADE20FF31F9D
:102CE000808191819AAB89AB892B39F34F5F5F4F1C
:102CF0006F4F7F4F49875A876B877C879E01235E82
:102D00003F4FAE01475D5F4F64E070E0C8010E9435
:102D10008B0D8111D0C18D819E81AF81B8850496C4
:102D2000A11DB11D8D839E83AF83B8874D8D5E8DB0
:102D3000BE016B5D7F4F8F8D98A10E94CF338BA119
:102D40009CA1009761F06D8D7E8DA5E2B0E0AC0F87
:102D5000BD1F6A0F7B1F49A15AA10E94CF331CAA35
:102D60001BAA412C512C3201E9A9FAA98081918139
:102D7000A281B381481659066A067B060CF09DCFE6
:102D8000E9A9FAA9848195812BA93CA9280F391FAB
:102D900038AB2FA7D90112966D917C919E01235ECD
:102DA0003F4FAE01475D5F4FC8010E948B0D8111FF
:102DB00082C1EFA5F8A982819381092E000CAA0B8C
:102DC000BB0B4D815E816F817885840F951FA61F97
:102DD000B71F8D839E83AF83B887608171814D8DCE
:102DE0005E8D8F8D98A10E94CF338BA19CA10097FF
:102DF00061F0AFA5B8A96D917C912D8D3E8D620FCC
:102E0000731F49A15AA10E94CF33BFEF4B1A5B0A2F
:102E10006B0A7B0AEBA9FCA93496FCABEBABA4CF05
:102E2000312C212C049709F0D1CD8EE0EDADFEAD13
:102E30008E9F80018F9F100D112423962EAD3FADE4
:102E40002397020F131FD80112964D915C9113978F
:102E50004115510509F4BACD16968D919C919AA70A
:102E600089A780E1FE013196DF011D928A95E9F77D
:102E7000C98ADA8AEB8AFC8A2114310409F458C021
:102E800084E48C9DF0018D9DF00D1124E955FB4FDC
:102E9000DF01DE968D909D90AD90BC9082AD93AD9C
:102EA000A4ADB5AD88169906AA06BB0609F040C0C8
:102EB000F801848195810084F185E02D349624E029
:102EC000DE01559601900D922A95E1F72D893E89F4
:102ED000285F3F4F3E8B2D8BD80118966D917C91CA
:102EE0001997260F371F19963C932E93189718960B
:102EF0002D913C911997480F591F241B350B37FD15
:102F000006C0820F931F19969C938E93189784E4A2
:102F10008C9DF0018D9DF00D1124EB51FB4FB1E024
:102F20008B1A9108A108B10880829182A282B38293
:102F30009E012B5E3F4FAE01475D5F4F64E170E045
:102F4000C8010E948B0D8111B6C08CE090E0A0E01A
:102F5000B0E08D839E83AF83B8879E01235E3F4F91
:102F6000AE01475D5F4F64E070E0C8010E948B0DC9
:102F70008111A1C080E190E0A0E0B0E08D839E834C
:102F8000AF83B8874D8D5E8DBE01655D7F4F8F8DA0
:102F900098A10E94CF338BA19CA1009761F06D8D09
:102FA0007E8DEBE2F0E0EC0FFD1F6E0F7F1F49A15D
:102FB0005AA10E94CF331DA21EA21FA218A62DAD9A
:102FC0003EAD220F331F38AF2FAB24E42C9DC00140
:102FD0002D9D900D112489559B4FAC014C5F5F4F87
:102FE0005AAF49AFDC011896BCAFABAF8DA09EA025
:102FF000AFA0B8A449855A856B857C85E9ADFAAD4B
:1030000080819181A281B38188169906AA06BB06A8
:103010000CF443CE452B462B472B09F4D7CC8AE141
:1030200090E0A0E0B0E089839A83AB83BC832DADB0
:103030003EADC901330FAA0BBB0B8D879E87AF87AF
:10304000B88B4D895E89BE016F5F7F4F8F89988DE8
:103050000E94CF338B8D9C8D009761F06D897E89A6
:1030600041E050E04C0F5D1F640F751F498D5A8D74
:103070000E94CF3389A59AA5D80117969C938E9369
:10308000169711961C921E92232809F49FCC84E473
:103090008C9DF0018D9DF00D1124EB51FB4F808133
:1030A0009181A281B3810196A11DB11D808391837D
:1030B000A283B3838BCC232809F088CC84E48C9D35
:1030C000F0018D9DF00D1124E955FB4F81E090E05A
:1030D00095A784A785E090E0938B828B77CCCF92E5
:1030E000DF92EF92FF920F931F9324E4269FF0014B
:1030F000279FF00D1124E955FB4F228933892115B3
:10310000310509F452C06B017C0121303105B1F465
:1031100082A593A59C012F5F3F4F33A722A7092EBD
:10312000000CAA0BBB0B028D138D248D358D8017DF
:103130009107A207B307C9F5C7013CDB84E48C9D66
:10314000F0018D9DF00D1124E955FB4F8289938983
:10315000039759F582A593A59C012F5F3F4F33A795
:1031600022A7092E000CAA0BBB0B468D578D60A120
:1031700071A184179507A607B707BCF086AD97AD78
:1031800093A782A784E090E0938B828B82AD93AD6E
:10319000A4ADB5AD181619061A061B0634F4EE5B7D
:1031A000FF4F81E090E0918380831F910F91FF900A
:1031B000EF90DF90CF90089524E4269FF001279FA1
:1031C000F00D1124E955FB4F828993890497B1F4DE
:1031D00082A593A5019693A782A7092E000CAA0B9E
:1031E000BB0B46895789608D718D84179507A6079B
:1031F000B70721F485E090E0938B828B08952F929E
:103200003F924F925F926F927F928F929F92AF9276
:10321000BF92CF92DF92EF92FF920F931F93CF93C3
:10322000DF93CDB7DEB72E970FB6F894DEBF0FBE93
:10323000CDBFDC0149835A836B837C83290184E4FD
:10324000849FF001859FF00D1124E955FB4F2288E2
:103250003388C1010497029708F0D5C011961C92DB
:103260001E9213961C921E92129715861486912C0C
:10327000812C90E080E08F019F01205F3F4F3887D5
:103280002F833F013CE0630E711CBF01625F7F4FE3
:103290007A8769873A96FC87EB87EF81F8852081EA
:1032A0003181F30140815181E985FA85A080B180A7
:1032B000841595050CF445C011965C934E931396B6
:1032C0003C932E9312971596BC92AE921497452B71
:1032D000F9F4F5E02F163104D9F410922F05F80116
:1032E000828D938DA48DB58DAE014F5F5F4F64E0ED
:1032F00070E08F3F9F4FAF4FBF4F09F079C080E222
:1033000090E0F6D469817A818B819C81A201A7DA51
:103310002E960FB6F894DEBF0FBECDBFDF91CF91D2
:103320001F910F91FF90EF90DF90CF90BF90AF90E3
:103330009F908F907F906F905F904F903F902F90D5
:103340000895EB85FC8560817181FB01E80DF91D15
:10335000FE87ED8760817181672B89F5E084F184B8
:10336000628173817E836D83668177816A01E3E088
:10337000CC0CDD1CEA95E1F72C0D3D1D440F551FCB
:103380004A0D5B1DFA0191838083F30140815181D5
:103390004F5F5F4F51834083F901F382E282ED85F5
:1033A000FE8573876287E616F70670F46E197F094B
:1033B000F901718360831582148217821682019647
:1033C000FEE08F0E911C69CFED85FE85C480D5800F
:1033D0004D815E814C0D5D1D4E195F09F9015183D0
:1033E00040836C197D0975836483D782C682E7CFD9
:1033F0008FE190E07DD4F80113A612A681E090E061
:10340000938B828B85CF1586148611961C921E9203
:1034100013961C921E9212977BCFEF92FF920F93FE
:103420001F93CF93DF937C018B01EA013DD581117E
:103430001BC080911803909119030497F9F4DF9150
:10344000CF911F910F91FF90EF90089528ED38EBE9
:1034500045E050E060E070E0CB01DCD7AE01B801A0
:10346000C701E6D7C801AFD78091300590913105EB
:10347000892BF9F68881882349F3DBCF83E090E03C
:103480009093190380931803DACFCF93DF932091A1
:103490001803309119032430310531F0EB01C8D7FE
:1034A000CE01DF91CF918FC7DF91CF9108950C941A
:1034B00016260C940B260C94F92595C70C949D2583
:1034C000089570E060E090E080E0C9C40895AF9294
:1034D000BF92CF92DF92EF92FF920F931F93CF9301
:1034E000DF931F921F92CDB7DEB75C018B0169019C
:1034F0007A0190E080E0C114D104E104F10469F4A0
:103500000F900F90DF91CF911F910F91FF90EF904F
:10351000DF90CF90BF90AF9008959C2D8D2DC1145A
:10352000D10421E0E206F10410F09FEF8FEF9E013D
:103530002F5F3F4F492F582FB801C5010E94A52684
:103540008F3F9807E9F229813A81C21AD30AE1082C
:10355000F108020F131FCFCF40E855E260E070E0A2
:1035600090E080E000C08130910579F01CF4892B57
:1035700039F008958230910561F0039771F0089554
:1035800026E087E695E00C94812F26E084E096E023
:10359000FACF26E081EA96E0F6CF26E08EE397E0C8
:1035A000F2CF1F920F920FB60F9211240BB60F920B
:1035B0002F933F934F935F936F937F938F939F933B
:1035C000AF93BF93EF93FF9387EE9FEF9093250107
:1035D000809324010E94DF26FF91EF91BF91AF916C
:1035E0009F918F917F916F915F914F913F912F911B
:1035F0000F900BBE0F900FBE0F901F90189587EE87
:103600009FEF9093250180932401A3E7B0E08C9174
:103610008E7F8C93E0E2F1E080818C7F8083E1E219
:10362000F1E08081877E80838081836080838081D8
:103630008B7F80838C9181608C93089581E00895C5
:103640008F929F92AF92BF92CF92DF92EF92FF92B2
:103650000F931F93CF93DF935C017B018A01C1E03D
:10366000D0E0CE15DF05CCF081E0F5018083B80114
:10367000C7010E944026F5019283818390E080E09B
:10368000DF91CF911F910F91FF90EF90DF90CF903E
:10369000BF90AF909F908F9008956E018FEFC81AE2
:1036A000D80AFE01EE0FFF1FE00FF11F808091800E
:1036B0008114910469F06CE074E0C4010E94DF336E
:1036C000892B41F4CC0FDD1FC00FD11F1982188246
:1036D000E601C7CF6FE074E0C4010E94DF33892B9D
:1036E000B9F7EC14FD04A1F36E01E2E0CE0ED11C9B
:1036F000CC0FDD1FC00FD11F198218821B821A82C6
:10370000E7CF82E395E0089580E008950F931F933B
:10371000CF93DF938B01BA01E901198218829801D6
:10372000012E000C440B550BFC0181819281CFDEF0
:10373000019641F01983088380E0DF91CF911F91BA
:103740000F91089581E0F9CF0F931F93CF93DF93EB
:103750001F921F92CDB7DEB7FB018A01B9019E010E
:103760002F5F3F4FAF01FC01818192810E9457265C
:10377000019669F089819A81F8019183808380E0C4
:103780000F900F90DF91CF911F910F91089581E0DD
:10379000F7CFFC01808108950895089581E0FB0131
:1037A000808380E00895089510925A050895FC01E1
:1037B000818192810C943826CF93DF9300D000D082
:1037C00000D01F92CDB7DEB7B0E0A0E089839A8326
:1037D000AB83BC83CB01770FAA0BBB0B8D839E837E
:1037E000AF83B8879E01275F3F4FAE014F5F5F4FAA
:1037F00068E070E08091490590914A0587DF81116A
:1038000010C081E029853A852830310509F480E02F
:103810002A960FB6F894DEBF0FBECDBFDF91CF91D1
:10382000089581E0F5CF0F931F93CF93DF931F92FD
:103830001F92CDB7DEB78B019E012F5F3F4FAC01CA
:103840008091490590914A0561DF81110EC081E0A8
:1038500029813A812017310709F480E00F900F90F9
:10386000DF91CF911F910F91089581E0F7CFCF9312
:10387000DF93EC0110924D0510924C051092590502
:1038800010925805AC0160E070E0CB010E942F144B
:10389000AE0161E070E080E090E00E942F14809122
:1038A000490590914A05DF91CF917DCF4F925F926C
:1038B0006F927F928F929F92AF92BF92CF92DF9240
:1038C000EF92FF920F931F93CF93DF931F921F925C
:1038D000CDB7DEB78C017C0197FF03C087E0E80E0F
:1038E000F11C23E0F594E7942A95E1F7C80168E01C
:1038F00070E00E943F326C010E5F1F4F80914705C0
:103900009091480580179107D4F4809145059091D6
:103910004605009731F00E944633109248051092F8
:103920004705C8010E94AA32909346058093450539
:10393000892B09F482C0109348050093470510E0D5
:1039400000E047C1412C512C3201B12CA12C950132
:10395000225B3A4FAE014F5F5F4F61E070E08091B4
:10396000490590914A05F0DE811149C0EFEF4E1AEA
:103970005E0A6E0A7E0AF0E94F16FFE55F06F1E087
:103980006F06710444F060915805709159058DEEF1
:1039900090E012DFD7CF89819A81A80EB91E8AE004
:1039A000A816B10409F043C049E050E070E060E0BF
:1039B0008EE495E00E94D1266091580570915905DA
:1039C000882391F18091560590E08617970781F43E
:1039D000BC018EEE90E0F0DE809158059091590583
:1039E0000196992790935905809358050F5F1F4FB3
:1039F0000E151F050CF4A6CFCD2809F07CC090E071
:103A000080E00F900F90DF91CF911F910F91FF9069
:103A1000EF90DF90CF90BF90AF909F908F907F906E
:103A20006F905F904F9008958FEE90E0B2CFEAE0F4
:103A3000AE16B1040CF48BCFDBCF10E000E0D8CF92
:103A40000A30110531F549E050E070E060E08EE4A5
:103A500095E00E94D1266091580570915905882300
:103A6000A9F08091560590E08617970741F6BC01B2
:103A70008EEE90E0A1DE8091580590915905019657
:103A800099279093590580935805B9CF8FEE90E010
:103A90002BC00A3011050CF0B2CF9801225B3A4FCF
:103AA000AE014F5F5F4F61E070E0809149059091FA
:103AB0004A054ADE8111A3CF89819A81080F191F17
:103AC000FFEFCF1ADF0AEF0AFF0A80E9C8168FE579
:103AD000D80681E0E806F1040CF4B2CF60915805F5
:103AE000709159058DEE90E067DE10E000E0C12C8A
:103AF000D12C7601D2CFC12CD12C760110E000E080
:103B0000CCCF412C512C3201B12CA12C480193E097
:103B1000880C991C9A95E1F720914505309146054E
:103B2000C501880D991D280F391FAE014F5F5F4FEA
:103B300061E070E08091490590914A0505DE8111B0
:103B40005ECFEFEF4E1A5E0A6E0A7E0A609158054C
:103B5000709159058DEE90E0F0E94F16FFE55F0694
:103B6000F1E06F0671040CF043C089819A81A80EC0
:103B7000B91E8AE0A816B10409F041C049E050E03E
:103B8000B40180914505909146050E94D12660912F
:103B9000580570915905882349F180914505909108
:103BA0004605880E991EF401808590E086179707D8
:103BB00081F4BC018EEE90E0FFDD8091580590917C
:103BC00059050196992790935905809358050F5FE1
:103BD0001F4F0E151F050CF494CFC114D10409F02A
:103BE00081C080914505909146050BCF8FEE90E006
:103BF000E3DD412C512C3201B12CA12C8DCFFAE008
:103C0000AF16B1040CF488CFE4CF8FEE90E0D4DD92
:103C1000F12CE12C812C912C54019701225B3A4F1D
:103C2000AE014F5F5F4F61E070E080914905909178
:103C30004A058ADD8111E3CE8FEF881A980AA80A17
:103C4000B80A60915805709159058DEE90E0E0E951
:103C50008E16EFE59E06E1E0AE06B104C4F689815A
:103C60009A81E80EF91EFAE0EF16F104A9F549E091
:103C700050E070E060E08EE495E00E94D126609113
:103C8000580570915905882309F4BFCF80915605D6
:103C900090E08617970709F0A4CFBC018EEE90E064
:103CA0008BDD83E0000F111F8A95E1F780914505B8
:103CB00090914605A6016EE475E0800F911F0E9469
:103CC000CF3380915805909159050196992790938B
:103CD00059058093580585CF8AE0E816F1040CF465
:103CE0009CCF7FCF812C912C5401F12CE12C95CFCE
:103CF000CF92DF92EF92FF920F931F93CF93DF93B8
:103D00001F92CDB7DEB76C017B018A01452B39F0DC
:103D1000AB0170E060E0C8010E94CD268983B70145
:103D2000C6014ADD81110DC00115110551F0B70121
:103D3000C80179DD811105C061E070E0CE01019616
:103D400072DD0F90DF91CF911F910F91FF90EF9057
:103D5000DF90CF900895CF92DF92EF92FF92CF93B2
:103D6000DF9300D000D01F921F92CDB7DEB76B015A
:103D7000F12CE12CC982DA82EB82FC822D833E8316
:103D80004F835887AE014F5F5F4F68E070E0B0DF50
:103D900028960FB6F894DEBF0FBECDBFDF91CF914E
:103DA000FF90EF90DF90CF9008958F929F92AF9207
:103DB000BF92CF92DF92EF92FF920F931F93CF9318
:103DC000DF937C01EB01CA01690170DD0097B1F45A
:103DD0002FEF3FEFA90161E070E0C701BCDFC1E058
:103DE0008C2FDF91CF911F910F91FF90EF90DF907B
:103DF000CF90BF90AF909F908F900895FC018190DD
:103E00009190A190B190BF01FCE1EF16F10479F41B
:103E1000A5019401CE010E949512C82FA50194011D
:103E2000882369F061E070E0C70195DFD9CF950183
:103E30008401AB01B601CE010E949810EECF70E074
:103E400060E0C701DF91CF911F910F91FF90EF903C
:103E5000DF90CF90BF90AF909F908F907CCF0F93CB
:103E60001F93CF93DF93EC018B014BDC90934A05BA
:103E7000809349050097A9F0A801BE01E1DBEC01A0
:103E8000892B49F08091490590914A0585DC109273
:103E90004A0510924905CE01DF91CF911F910F91F4
:103EA0000895CBE1D4E0EECF8091490590914A0589
:103EB00070CC2F923F924F925F926F927F928F922F
:103EC0009F92AF92BF92CF92DF92EF92FF920F93A9
:103ED0001F93CF93DF93CDB7DEB769970FB6F894F2
:103EE000DEBF0FBECDBF20914D052223F1F05B8BCD
:103EF0004A8B6E877F87888B998B9A01AB01BC01B7
:103F0000CE0101967C017BD910E048E0242E312CB3
:103F1000E88EF98E89819A81181619060CF450C220
:103F2000112319F08A899B89A2DC69960FB6F8944F
:103F3000DEBF0FBECDBFDF91CF911F910F91FF90DC
:103F4000EF90DF90CF90BF90AF909F908F907F9039
:103F50006F905F904F903F902F900895EB81FC8180
:103F60008C859D8533E0880F991F3A95E1F7E80F1E
:103F7000F91F8081918190934405809343052481AA
:103F800035814281538150934205409341054681DA
:103F900057815093400540933F05820F931F9C012A
:103FA000990F440B550B2C8B3D8B4E8B5F8B812CCB
:103FB000912C54018C899D89AE89BF8988169906F8
:103FC000AA06BB0638F18C859D85880F991FED8167
:103FD000FE81E80FF91F4E855F85688979898081A8
:103FE00091810E946114AC85BD851196BD87AC8717
:103FF00089819A81EC85FD85E817F9070CF4AECF2D
:104000002A893B894E855F8568897989888D998D54
:10401000F6D880CF1F826091430570914405CB0193
:10402000072E000CAA0BBB0B84017501640134E060
:10403000C30ED11CE11CF11CC816D906EA06FB060A
:1040400008F0B3C02091410530914205A4014C5FB6
:104050005F4F240F351FF901C080D12CF12CE12CCA
:1040600024013501F5E04F0E511C611C711C4816EE
:1040700059066A067B0608F0A3C0209141053091DD
:104080004205F8013596E20FF31F2081D22A240160
:10409000350126E0420E511C611C711C4816590660
:1040A0006A067B0608F097C02091410530914205D1
:1040B000F8013696E20FF31F2081E22A2401350130
:1040C00037E0430E511C611C711C481659066A06E4
:1040D0007B0608F08BC02091410530914205F80124
:1040E0003796E20FF31F208126013701722A7501EE
:1040F000640148E0C40ED11CE11CF11C8C159D0527
:10410000AE05BF0508F41DC188169906AA06BB06B0
:1041100008F077C08091410590914205800F911F72
:1041200068E070E080DBE0914305F09144059F0179
:104130000F2E000C440B550BD301C2018C0D9D1D9D
:10414000AE1DBF1D281739074A075B0708F478C062
:10415000C216D306E406F50608F05DC0809141055D
:10416000909142059801285F3F4F820F931FB20143
:104170005ADB8091430590914405AC01092E000C57
:10418000660B770BC416D506E606F70608F04DC099
:10419000085F1F4F8091410590914205800F911F4C
:1041A000A20170E060E0F9D5A7C044E050E0461BF2
:1041B000570B480D591D20913F053091400549CFBF
:1041C000E5E0F0E0E61BF70BE00FF11F20913F0563
:1041D0003091400558CFE6E0F0E0E61BF70BE00F2A
:1041E000F11F20913F053091400564CFE7E0F0E0FA
:1041F000E61BF70BE00FF11F20913F0530914005C2
:1042000070CF9801261B370B80913F059091400598
:10421000820F931F85CF91012E1B3F0B200F311F63
:1042200080913F0590914005A0CFD101A81BB90B0B
:10423000CD01080F191F80913F0590914005AECF29
:10424000BF0168507109601B710BC216D306E406EA
:10425000F50608F062C080914105909142059801F1
:10426000285F3F4F820F931FDEDA809143059091C4
:104270004405B101681B790B600F711F640D751D3A
:1042800080913F0590914005CEDA80914305909151
:104290004405AC0148505109FA01E01BF10BAC0197
:1042A000092E000C660B770BC416D506E606F7063A
:1042B00008F03DC080914105909142059801285F2A
:1042C0003F4F820F931FAF0170E060E066D58F8390
:1042D0002091430530914405F101E21BF30B9F014E
:1042E000200F311F240D351D50E040E0682F8091D4
:1042F0003F05909140053DD58F8361E070E0CE0190
:10430000079691DA182F38E0430E511C611C711C7E
:10431000840C951CA61CB71C4DCE91012E1B3F0B87
:10432000200F311F80913F05909140059BCF910157
:10433000281B390B200F311F80913F0590914005BC
:10434000C0CF88169906AA06BB0668F5601B710BDC
:104350008091410590914205800F911F64DA809110
:10436000430590914405B101681B790B600F711FE3
:10437000640D751D80913F059091400554DA809140
:10438000430590914405AC01092E000C660B770B98
:10439000C416D506E606F70608F4FACE9101281BE6
:1043A000390BC90146CFC801861B970B20913F05E9
:1043B00030914005B201685F7F4F820F931FDECFBF
:1043C0001D861C8615CECF93DF93EC01AC0160E017
:1043D00070E0CB016EDDAE0161E070E080E090E066
:1043E000DF91CF9166CDCF938091490590914A0599
:1043F0008BD9C82F81110BC060E070E0CB010E9407
:104400005A0F61E070E080E090E00E945A0F8C2F1C
:10441000CF9108950F931F9389019A01AB01BC01BD
:104420008091490590914A05B8D91F910F9108953F
:104430004F925F926F927F928F929F92AF92BF92B4
:10444000CF92DF92EF92FF920F931F93CF93DF9360
:10445000CDB7DEB763970FB6F894DEBF0FBECDBF02
:104460006C018B015A0180914D05882309F43DC0F0
:1044700080914D05882309F442C080914C051A8231
:104480001982882309F4C0C0F0E94F2EFFE55F2EA2
:1044900066246394712CF12CE12C97012B5C3A4F2C
:1044A000AE014F5F5F4F61E070E0809149059091F0
:1044B0004A054AD9982E811169C089819A81E80EEE
:1044C000F91EE114F10409F461C081E0481A5108B1
:1044D0006108710859F560915805709159058DEE84
:1044E00090E06AD91A82198251C06DE475E080911A
:1044F000490590914A0552D9882309F4B9CF6396AA
:104500000FB6F894DEBF0FBECDBFDF91CF911F91E4
:104510000F91FF90EF90DF90CF90BF90AF909F9062
:104520008F907F906F905F904F900895AAE0EA1669
:10453000F10409F063C049E050E070E060E085E319
:1045400095E02FD46091580570915905882309F49E
:1045500052C080913D0590E08617970719F6BC017F
:104560008EEE90E029D988E0E5E3F5E0DE011996CA
:1045700001900D928A95E1F7809158059091590527
:1045800001969927909359058093580581E02981D8
:104590003A81121613060CF080E09110CAC28823EB
:1045A00009F4ADCF80914C05811104C019861A869B
:1045B0001B861C8689859A85AB85BC8580319105D3
:1045C000A105B10508F09BCFFC018827E551FD4D01
:1045D0008F4F0C9474326B232A2599257F226F24E8
:1045E000A2245B2363233F237E256D257A257F222A
:1045F0007F227F222A238FEE90E073CFBAE0EB1662
:10460000F1040CF44ACFC2CFF12CE12CE8E06E2E7D
:10461000712C29E030E02C0F3D1F2E0D3F1DAE0107
:104620004F5F5F4FB3016E197F09809149059091EB
:104630004A058AD8982E29813A81811109C0E20E53
:10464000F31EE114F10421F0E8E0EE16F1040CF39E
:1046500081E09FCFD6011696ED91FC9180819181EA
:10466000A281B38189839A83AB83BC83AE014F5F00
:104670005F4F64E070E085E190E03ADB40CF8D85EC
:104680009E8514D92FEF3FEFA90161E070E00097FC
:1046900071F0FC01C080D180E280F380A801C701E5
:1046A000B6010E94DA13A701960170E060E08DE187
:1046B00090E051DB24CF4D855E859801B6018BE1FA
:1046C00090E073DB1CCF4D855E852FEF3FEFB60189
:1046D0008CE190E0F6CFD6011496ED91FC9100812B
:1046E0001181F80182809380A080B18070E1472E13
:1046F000512C612C712C49825A826B827C8288E019
:1047000090E0A0E0B0E08D839E83AF83B8879E01E8
:104710002F5E3F4FAE014F5F5F4F68E070E08091CA
:10472000490590914A050E94861B8823D9F010E024
:1047300000E0C80163960FB6F894DEBF0FBECDBF90
:10474000DF91CF911F910F91FF90EF90DF90CF906D
:10475000BF90AF909F908F907F906F905F904F90A1
:104760000C94463389899A89089709F7D801ED9006
:10477000FC90B8E0EB0EF11CEE0CFF1CEE0CFF1CE5
:10478000C7010E94AA328C01892B89F249825A8280
:104790006B827C82C7010F2C000CAA0BBB0B8D8394
:1047A0009E83AF83B8879E012F5E3F4FAE014F5F60
:1047B0005F4F68E070E08091490590914A050E9442
:1047C000861B8111B6CF89899A89089709F0B1CFE4
:1047D000D6011296ED91FC914081518162817381E5
:1047E000D8014D935D936D937C93139744815581CC
:1047F0006681778114964D935D936D937C931797A3
:10480000408551856285738518964D935D936D93B0
:104810007C931B9784859585A685B785F801848749
:104820009587A687B787108A118A128A138A84E02F
:1048300090E0A0E0B0E0848B958BA68BB78B809145
:10484000180390911903B0E0A0E0808F918FA28FA0
:10485000B38FC5010B2C000CAA0BBB0B848F958F5B
:10486000A68FB78FF401D801909690E080E08A156A
:104870009B055CF19E012F5E3F4FA801B70180911F
:10488000490590914A050E94861B811152CF898962
:104890009A89E816F90609F04CCFA70170E060E0AC
:1048A000C8017BD28B8B9E012F5E3F4FAE014D5EC8
:1048B0005F4F61E070E08091490590914A050E9448
:1048C000861B81E080934C0534CF4191519170E07B
:1048D00060E04D935D936D937D930196C8CF8D8578
:1048E0009E85AF85B8890097A105B10521F481E0C7
:1048F00080934B0504CE0E94561C009781F481E002
:1049000090E0A0E0B0E089839A83AB83BC83AE01E2
:104910004F5F5F4F64E070E082E190E0AECEBC019B
:10492000C6010E94B40E19821A821B821C82AE013B
:104930004F5F5F4F64E070E082E190E0D9D9882357
:10494000B1F2DDCDD6011496ED91FC910190F0818C
:10495000E02DE084F1848FEF8983E114F10409F400
:1049600072C0D7016D907C90C280D38070E060E00F
:1049700090E080E08615970594F083E190E00E9436
:10498000DC1B10E000E08111BACD061517055CF1C3
:1049900061E070E0CE0101960E94131CB0CD9C0135
:1049A00043E0220F331F4A95E1F7F701A281B3815B
:1049B000A20FB31F1296ED91FC911397EE0FFF1FFC
:1049C000EC0DFD1D0190F081E02D16964D915C914E
:1049D000E49F9001E59F300DF49F300D1124620F8C
:1049E000731F0196C7CFD7011296ED91FC91C801B4
:1049F00023E0880F991F2A95E1F7E80FF91FA0809F
:104A0000B180A281B381AA0FBB1FAC0DBD1D2D913A
:104A10003C9186819781289F4001299F900C389F67
:104A2000900C1124B401C5010E94131C582E94014E
:104A300050E040E06981C5019CD1898351105FCD70
:104A40000F5F1F4FA2CF70E060E083E190E00E9413
:104A5000DC1B55CD50E040E070E060E081E190E08B
:104A600047D981114CCD60E070E0CB010E947F10EE
:104A700080912F05882329F0A80160E070E0CB0128
:104A800018DAA80160E070E0CB010E94860F61E0B7
:104A900070E080E090E00E947F1080912F058823D5
:104AA00031F0A80161E070E080E090E002DAA80156
:104AB00061E070E080E090E00E94860F10924D056A
:104AC00010924C0510925905109258058091490595
:104AD00090914A050E94D41B12CD81E090E0909302
:104AE00031058093300550E040E070E060E086E101
:104AF00090E0C3CD81E0F501808301CD8D859E8559
:104B00000E94561C2FEF3FEFA90161E070E0009773
:104B100069F0DC01CD90DD90ED90FC90C701B6010D
:104B20000E943A14A701960170E060E08EE190E0E7
:104B3000C0CDC8010E94371CE2CCCF92DF92EF9229
:104B4000FF92CF93DF93EC01C12CD12C7601C701EA
:104B5000B6010E947F10AE01C701B601AAD9AE010D
:104B6000C701B6010E94860F8091450590914605C8
:104B7000009731F00E944633109246051092450589
:104B8000CA94CD28CE28CF2879F580914C05F12CF8
:104B9000882351F050E040E070E060E084E190E074
:104BA000A7D8F82E10924C0580914D05882341F02E
:104BB00010924D0581E090E09093190380931803C3
:104BC0008091490590914A050E94D71B8091490523
:104BD00090914A050E94CC1B8F2DDF91CF91FF90C1
:104BE000EF90DF90CF900895C12CD12C7601C39423
:104BF000AECFCF93DF93EC01AC0160E070E0CB016E
:104C00000E946F18AE0161E070E080E090E0DF91FB
:104C1000CF910C946F1860E070E0CB010E94DC181B
:104C200061E070E080E090E00C94DC18CF92DF92BD
:104C3000EF92FF920F931F93CF93DF93EC016A01E2
:104C40007B0100E010E098010E948A1401E010E06E
:104C500020E030E0B701A601CE010E948A14DF9166
:104C6000CF911F910F91FF90EF90DF90CF9008951B
:104C700068EE73E080E090E017D690E080E0089561
:104C800026E040E050E16EE070E087E695E00E94AB
:104C9000812F87E695E00E94B72E892B29F087E6C1
:104CA00095E00E94D12EF5CF90E080E00895CF925C
:104CB000DF92EF92FF920F931F93CF93DF936B01DD
:104CC0007A01E9011982188287E695E00E94B72EE1
:104CD000892B81F18601CC24C39485E6D82E80915E
:104CE0005A05811112C087E695E00E94D12E8536C3
:104CF0009105A9F7C0925A05F801D1928F018881D8
:104D00009981019699838883EACF888199818E154C
:104D10009F0580F487E695E00E94D12E8F3F98078B
:104D2000A1F3F80181938F0188819981019699837C
:104D30008883EBCF90E080E0DF91CF911F910F91BE
:104D4000FF90EF90DF90CF9008950F931F93CF9334
:104D5000DF93EA01890187E695E00E941132F801AC
:104D6000D183C08390E080E0DF91CF911F910F91BC
:104D70000895DC01A40FB51F420F531F9D01281B8E
:104D8000390B2417350710F0862F0895ED91E6278B
:104D9000F0E0EC51FF4F6491F1CF9A01AB016FEF5E
:104DA000E8CFCF93FC01E60FF71FE40FF51FC0819A
:104DB000F4DF91E0C81390E0892FCF91089580919E
:104DC0005B0591E0980F90935B05882349F021E003
:104DD00030E030935D0520935C0580935B0508957A
:104DE00078940E94DE04F89480915B058150809352
:104DF0005B050C94591ADF92EF92FF920F931F9369
:104E0000CF93DF931F92CDB7DEB71092A209109215
:104E1000A10980D50E94AC1A00914403109145036A
:104E2000F8011182108270E060E090E080E00E9462
:104E3000611A0E94DB0A7894C8018A509F4F0E9431
:104E4000601A82E090E00E945D1A1982AE014F5F05
:104E50005F4F62E070E0F801828193810E940D1A39
:104E60008981882329F081E0F801E450FF4F808395
:104E70000E94661AF8940E94FF1AF80180819181BD
:104E8000892B29F481E0E450FF4F9081911180E05B
:104E90008093A109789478947801FCEFEF0EF11CCF
:104EA000DD24D3948091A109811112C00E94ED0CE0
:104EB00082E090E00E945E1AF89490E080E00F900B
:104EC000DF91CF911F910F91FF90EF90DF900895A8
:104ED0001982AE014F5F5F4F62E070E0F80182819E
:104EE00093810E94451A8981882311F0F701D082AD
:104EF000F80180819181892B91F481E0F701908103
:104F0000911101C080E08093A2099091A20981E0F3
:104F1000911180E08093A1090E941E1BC3CF81E004
:104F2000F2CF5058BB27AA270ED0C4C1B5D130F05C
:104F3000BAD120F031F49F3F11F41EF4AAC10EF44F
:104F4000E095E7FB77C1E92FC6D180F3BA17620776
:104F500073078407950718F071F49EF5F5C10EF4F8
:104F6000E0950B2EBA2FA02D0B01B90190010C0179
:104F7000CA01A0011124FF27591B99F0593F50F491
:104F8000503E68F11A16F040A22F232F342F4427E9
:104F9000585FF3CF469537952795A795F0405395E1
:104FA000C9F77EF41F16BA0B620B730B840BBAF0B1
:104FB0009150A1F0FF0FBB1F661F771F881FC2F71C
:104FC0000EC0BA0F621F731F841F48F48795779530
:104FD0006795B795F7959E3F08F0B3CF9395880FE7
:104FE00008F09927EE0F97958795089596D180F050
:104FF0009F3740F491110EF4A8C160E070E080E8A2
:105000009FE3089526F01B16611D711D811D18C1B7
:1050100032C1ECD008F481E008950CD04BC143D1EB
:1050200040F03AD130F021F45F3F19F003C1511143
:105030008CC12FC150D198F39923C9F35523B1F3F3
:10504000951B550BBB27AA2762177307840738F0F7
:105050009F5F5F4F220F331F441FAA1FA9F333D056
:105060000E2E3AF0E0E830D091505040E695001C0A
:10507000CAF729D0FE2F27D0660F771F881FBB1FC6
:10508000261737074807AB07B0E809F0BB0B802DA0
:10509000BF01FF2793585F4F2AF09E3F510568F0EC
:1050A000C9C053C15F3FECF3983EDCF3869577951A
:1050B0006795B795F7959F5FC9F7880F911D9695EE
:1050C000879597F90895E1E0660F771F881FBB1F4A
:1050D000621773078407BA0720F0621B730B840BF7
:1050E000BA0BEE1F88F7E095089504D06894B111CB
:1050F0002CC10895F8D088F09F5790F0B92F9927C8
:10510000B751A0F0D1F0660F771F881F991F1AF0D2
:10511000BA95C9F712C0B13081F016D1B1E0089547
:1051200013C1672F782F8827B85F39F0B93FCCF3C8
:10513000869577956795B395D9F73EF490958095C8
:10514000709561957F4F8F4F9F4F0895E89409C0E8
:1051500097FB3EF490958095709561957F4F8F4FAA
:105160009F4F9923A9F0F92F96E9BB279395F695C0
:10517000879577956795B795F111F8CFFAF4BB0F3E
:1051800011F460FF1BC06F5F7F4F8F4F9F4F16C0A2
:10519000882311F096E911C0772321F09EE8872F2C
:1051A000762F05C0662371F096E8862F70E060E0E8
:1051B0002AF09A95660F771F881FDAF7880F969561
:1051C000879597F90895A9D080F09F3740F4911101
:1051D0000EF0BBC060E070E080E89FEB089526F41D
:1051E0001B16611D711D811D2BC045C0990F000844
:1051F000550FAA0BE0E8FEEF16161706E807F907A9
:10520000C0F012161306E407F50798F0621B730B43
:10521000840B950B39F40A2661F0232B242B252BC4
:1052200021F408950A2609F4A140A6958FEF811D67
:10523000811D089597F99F6780E870E060E0089508
:10524000882371F4772321F09850872B762F07C09D
:10525000662311F499270DC09051862B70E060E011
:105260002AF09A95660F771F881FDAF7880F9695B0
:10527000879597F908959F3F31F0915020F48795D5
:1052800077956795B795880F911D9695879597F9AE
:1052900008959FEF80EC089500240A9416161706CF
:1052A00018060906089500240A9412161306140617
:1052B00005060895092E0394000C11F4882352F07A
:1052C000BB0F40F4BF2B11F460FF04C06F5F7F4F32
:1052D0008F4F9F4F089557FD9058440F551F59F019
:1052E0005F3F71F04795880F97FB991F61F09F3FD3
:1052F00079F087950895121613061406551FF2CFFC
:105300004695F1DF08C0161617061806991FF1CF4B
:1053100086957105610508940895E5DFA0F0BEE764
:10532000B91788F4BB279F3860F41616B11D672F94
:10533000782F8827985FF7CF869577956795B11D69
:1053400093959639C8F30895E894BB276627772785
:10535000CB0197F908954ADF08F48FEF08950BD039
:10536000A9CF9ADF28F09FDF18F0952309F062CFCC
:1053700090CF1124EACFAFDFA0F3959FD1F3950F23
:1053800050E0551F629FF001729FBB27F00DB11DC9
:10539000639FAA27F00DB11DAA1F649F6627B00D59
:1053A000A11D661F829F2227B00DA11D621F739F42
:1053B000B00DA11D621F839FA00D611D221F749F50
:1053C0003327A00D611D231F849F600D211D822F97
:1053D000762F6A2F11249F5750408AF0E1F08823DE
:1053E0004AF0EE0FFF1FBB1F661F771F881F9150EB
:1053F0005040A9F79E3F510570F01CCFA6CF5F3FEC
:10540000ECF3983EDCF3869577956795B795F7951D
:10541000E7959F5FC1F7FE2B880F911D96958795A5
:1054200097F908950895883008F076C0E82FF0E0E5
:10543000EE0FFF1FE65EFC4F718360838150873063
:1054400008F03DC0E82FF0E08827E65DF54D8F4F6E
:105450000C947432672A312A392A452A522A732A2F
:10546000802A809169008C7F482B40936900E89ADC
:10547000089580916900837F440F551F440F551F85
:10548000482B40936900E99A0895809169008F7CC8
:1054900074E0440F551F7A95E1F7482B409369005B
:1054A000EA9A0895809169008F7366E0440F551F52
:1054B0006A95E1F7482B40936900EB9A0895809133
:1054C0006A008C7F482B40936A00EC9A0895809183
:1054D0006A00837F440F551F440F551F482B40938C
:1054E0006A00ED9A089580916A008F7C24E0440F51
:1054F000551F2A95E1F7482B40936A00EE9A0895CC
:1055000080916A008F7396E0440F551F9A95E1F7DA
:10551000482B40936A00EF9A08951F920F920FB69E
:105520000F9211240BB60F922F933F934F935F93DB
:105530006F937F938F939F93AF93BF93EF93FF935B
:10554000E0911E03F0911F031995FF91EF91BF9118
:10555000AF919F918F917F916F915F914F913F910B
:105560002F910F900BBE0F900FBE0F901F901895AC
:105570001F920F920FB60F9211240BB60F922F931A
:105580003F934F935F936F937F938F939F93AF93CB
:10559000BF93EF93FF93E0912003F09121031995BE
:1055A000FF91EF91BF91AF919F918F917F916F91FB
:1055B0005F914F913F912F910F900BBE0F900FBEB7
:1055C0000F901F9018951F920F920FB60F921124F3
:1055D0000BB60F922F933F934F935F936F937F93ED
:1055E0008F939F93AF93BF93EF93FF93E091220329
:1055F000F09123031995FF91EF91BF91AF919F9186
:105600008F917F916F915F914F913F912F910F906B
:105610000BBE0F900FBE0F901F9018951F920F9208
:105620000FB60F9211240BB60F922F933F934F9307
:105630005F936F937F938F939F93AF93BF93EF93FA
:10564000FF93E0912403F09125031995FF91EF91C9
:10565000BF91AF919F918F917F916F915F914F918A
:105660003F912F910F900BBE0F900FBE0F901F9088
:1056700018951F920F920FB60F9211240BB60F922E
:105680002F933F934F935F936F937F938F939F934A
:10569000AF93BF93EF93FF93E0911A03F0911B0335
:1056A0001995FF91EF91BF91AF919F918F917F914C
:1056B0006F915F914F913F912F910F900BBE0F9083
:1056C0000FBE0F901F9018951F920F920FB60F925A
:1056D00011240BB60F922F933F934F935F936F93C9
:1056E0007F938F939F93AF93BF93EF93FF93E0913B
:1056F0001C03F0911D031995FF91EF91BF91AF919C
:105700009F918F917F916F915F914F913F912F91D9
:105710000F900BBE0F900FBE0F901F9018951F9209
:105720000F920FB60F9211240BB60F922F933F9347
:105730004F935F936F937F938F939F93AF93BF9399
:10574000EF93FF93E0912603F09127031995FF91C2
:10575000EF91BF91AF919F918F917F916F915F91E9
:105760004F913F912F910F900BBE0F900FBE0F9056
:105770001F9018951F920F920FB60F9211240BB61F
:105780000F922F933F934F935F936F937F938F93DA
:105790009F93AF93BF93EF93FF93E0912803F09112
:1057A00029031995FF91EF91BF91AF919F918F912F
:1057B0007F916F915F914F913F912F910F900BBE11
:1057C0000F900FBE0F901F9018951F920F920FB65B
:1057D0000F9211242F933F938F939F93AF93BF9377
:1057E00080915F0590916005A0916105B09162057F
:1057F00030915E0523E0230F2D3758F50196A11D4A
:10580000B11D20935E0580935F0590936005A09382
:105810006105B09362058091630590916405A09144
:105820006505B09166050196A11DB11D80936305C4
:1058300090936405A0936505B0936605BF91AF9101
:105840009F918F913F912F910F900FBE0F901F90BE
:10585000189526E8230F0296A11DB11DD2CF3FB7A0
:10586000F8948091630590916405A0916505B091CD
:10587000660526B5A89B05C02F3F19F00196A11D0E
:10588000B11D3FBFBA2FA92F982F8827BC01CD018A
:10589000620F711D811D911D42E0660F771F881FE9
:1058A000991F4A95D1F708958F929F92AF92BF9218
:1058B000CF92DF92EF92FF926B017C01D0DF4B0120
:1058C0005C01C114D104E104F104D9F0D7D5C7DFDC
:1058D000681979098A099B09683E73408105910519
:1058E00080F321E0C21AD108E108F10888EE880EA1
:1058F00083E0981EA11CB11CC114D104E104F10481
:1059000031F7FF90EF90DF90CF90BF90AF909F90D6
:105910008F900895789484B5826084BD84B5816049
:1059200084BD85B5826085BD85B5816085BDEEE6A7
:10593000F0E0808181608083E1E8F0E01082808186
:1059400082608083808181608083E0E8F0E08081F4
:1059500081608083E1EBF0E0808184608083E0EB14
:10596000F0E0808181608083E1E9F0E08081826005
:105970008083808181608083E0E9F0E080818160C4
:105980008083E1EAF0E080818260808380818160B1
:105990008083E0EAF0E0808181608083E1E2F1E0F1
:1059A000808182608083808181608083E0E2F1E099
:1059B000808181608083EAE7F0E080818460808379
:1059C0008081826080838081816080838081806823
:1059D00080831092C10008951F93CF93DF93182FF7
:1059E000EB0161E033D1209731F460E0812FDF914A
:1059F000CF911F9167C1CF3FD10511F461E0F6CF80
:105A0000E12FF0E0EC51FE4FE491E150E23108F07B
:105A1000B2C0F0E08827E15FF24D8F4F65C5212DC0
:105A2000292D2E2D382D422DBB2D4C2D542D5C2D86
:105A3000662D702D7A2D892D932DBB2D9D2DA72D93
:105A4000B12D84B5806884BDC7BDDF91CF911F9112
:105A5000089584B5806284BDC8BDF7CF8091800071
:105A6000806880938000D0938900C0938800EDCF38
:105A700080918000806280938000D0938B00C093DF
:105A80008A00E3CF80918000886080938000D0936B
:105A90008D00C0938C00D9CF8091B0008068809336
:105AA000B000C093B300D1CF8091B00080628093EA
:105AB000B000C093B400C9CF8091900080688093FB
:105AC0009000D0939900C0939800BFCF8091900030
:105AD000806280939000D0939B00C0939A00B5CFD2
